:020000040000FA
:060000000A128A110C280F
:10000800FE00030EF1000A08F2000A128A11712A92
:100018000A128A110F28F801F901FA018312031351
:10002800AB01AC01AD01AE01AF01B001B101B2014C
:10003800B301B40183010A128A11512B8230831251
:100048000313AA00DD30A900A90B2828AA0B282829
:1000580001300A128A1132230A128A11823083125D
:100068000313AA00DD30A900A90B3828AA0B3828E9
:100078007A080A128A110A220A128A118230831215
:100088000313AA00DD30A900A90B4828AA0B4828A9
:10009800831203130C1E5128522854283308990040
:1000A800823083120313AA00DD30A900A90B5A2855
:1000B800AA0B5A28831203130C1E63286428662887
:1000C80032089900823083120313AA00DD30A90098
:1000D800A90B6C28AA0B6C28831203130C1E752815
:1000E8007628782831089900823083120313AA00F1
:1000F800DD30A900A90B7E28AA0B7E2801300A1240
:100108008A1132230A128A11823083120313AA0039
:10011800DD30A900A90B8E28AA0B8E2879080A12AF
:100128008A110A220A128A11823083120313AA0042
:10013800DD30A900A90B9E28AA0B9E288312031361
:100148000C1EA728A828AA283308990082308312F1
:100158000313AA00DD30A900A90BB028AA0BB02808
:10016800831203130C1EB928BA28BC283208990038
:10017800823083120313AA00DD30A900A90BC2281C
:10018800AA0BC228831203130C1ECB28CC28CE2816
:1001980031089900823083120313AA00DD30A900C8
:1001A800A90BD428AA0BD42801300A128A113223A9
:1001B8000A128A11823083120313AA00DD30A900C3
:1001C800A90BE428AA0BE42878080A128A110A2243
:1001D8000A128A11823083120313AA00DD30A900A3
:1001E800A90BF428AA0BF428831203130C1EFD286C
:1001F800FE28002933089900823083120313AA00CD
:10020800DD30A900A90B0629AA0B062983120313BE
:100218000C1E0F29102912293208990082308312E6
:100228000313AA00DD30A900A90B1829AA0B182965
:10023800831203130C1E212922292429310899002D
:10024800823083120313AA00DD30A900A90B2A29E2
:10025800AA0B2A2901300A128A1132230A128A119A
:10026800823083120313AA00DD30A900A90B3A29B2
:10027800AA0B3A298312031334080A128A110A2294
:100288000A128A11823083120313AA00DD30A900F2
:10029800A90B4C29AA0B4C29831203130C1E5529B0
:1002A8005629582933089900823083120313AA006B
:1002B800DD30A900A90B5E29AA0B5E29831203135E
:1002C8000C1E672968296A2932089900823083122E
:1002D8000313AA00DD30A900A90B7029AA0B702905
:1002E800831203130C1E79297A297C293108990075
:1002F800823083120313AA00DD30A900A90B8229DA
:10030800AA0B8229823083120313AA00DD30A900C8
:10031800A90B8C29AA0B8C2901300A128A113223C5
:100328000A128A11823083120313AA00DD30A90051
:10033800A90B9C29AA0B9C29080083120313A1016D
:10034800F41FA729A829AF29F309F409F30A031907
:10035800F40AA101A10AF61FB229B329BC29F5099B
:10036800F609F50A0319F60A0130F7007708A1061D
:10037800A201A301730874040319C329C429FB2922
:10038800A001A00AD22901300310F30DF40DFF3E9D
:10039800031DC8290130F7007708A007F41FD529E5
:1003A800D629C72901300310A20DA30DFF3E031D56
:1003B800D72974087602031DE32973087502031C04
:1003C800E629E729EE297308F5027408031CF603E9
:1003D800F602221401300310F40CF30CFF3E031D47
:1003E800EF290130A002031DFA29FB29D62921088B
:1003F8000319FF29002A052AA209A309A20A031939
:10040800A30A2308F4002208F30008008312031348
:10041800A7002708A4002408A8006430F3000030CF
:10042800F4002808A400A5012408F5002508F60012
:100438000A128A11A1210A128A117308831203135E
:10044800A6002608B3009C30A4002408F300330853
:100458000A128A1167230A128A11831203132807C2
:10046800A5002508A8000A30F3000030F400280889
:10047800A400A5012408F5002508F6000A128A112F
:10048800A1210A128A11730883120313A6002608F1
:10049800B200F630A4002408F30032080A128A11C8
:1004A80067230A128A11831203132807A500250857
:1004B800A8002808A4002408B1003308303EA4008E
:1004C8002408B3003208303EA4002408B2003108E2
:1004D800303EA4002408B1000800831203130C1F47
:1004E800762A772AC42A1F0CF000700C0F39003ABC
:1004F800031D7F2A802A892A1F08C33904389F00D0
:100508001E08F0007008FA00BD2A1F0CF000700CDD
:100518000F39013A031D912A922A9B2A1F08C339D1
:1005280008389F001E08F0007008F900BD2A1F0C4B
:10053800F000700C0F39023A031DA32AA42AAD2A31
:100548001F08C3390C389F001E08F0007008F80017
:10055800BD2A1F0CF000700C0F39033A031DB52A91
:10056800B62ABD2AC3309F051E08F0007008B400E3
:10057800BD2A2130F000F00BBF2A831203130C139D
:1005880072088A00710E8300FE0E7E0E09000F307D
:10059800831603178800890183160313051485142D
:1005A80005158515831203138501831603130F1789
:1005B8008F160F160F14C330831203139F059F174E
:1005C8001F171F14831603139F131F129F1218154A
:1005D8008316031787158316031318128312031340
:1005E80098171816831603139816831203131813F3
:1005F800CF308316031399009A018B1783120313C4
:100608000C13831603130C170B1708000130831201
:100618000313AF000030B000AD01AE012B2B2D0845
:10062800013EAD002E080318013E003EAE003030FA
:100638002D06753003192E06031D232B242B272B7B
:10064800AF01B0012B2B0130AF000030B0002F03F9
:1006580030040319302B312B132B0800F7007030AE
:10066800F4007408F5003E2B76080A128A117C23E0
:100678000A128A110130F707FF30770784000A123F
:100688008A1186230A128A11F4007408F600760883
:10069800031D4F2B502B382B08000A128A11CB222E
:1006A8000A128A11831203139F140A128A11222034
:1006B8000A128A110A128A110A230A128A11562B5F
:1006C8000A128A110C28F600F501761C6C2B6D2B8A
:1006D800712B7308F4007408F5070310F30D031069
:1006E800F60C7608031D792B7A2B692B7508080000
:1006F800F300831203130C1E822B832B7D2B7308AC
:100708009900080003308A000408840A820700342C
:040718002034003455
:04400E00D420FF3F7C
:00000001FF
