:020000040000FA
:060000000A128A110C280F
:10000800FE00030EF1000A08F2000A128A11EA291A
:100018000A128A110F28F801F901FA018312031351
:10002800C301C401C501C601C70183010A128A11AF
:10003800FE2A83120313B6002930B1003108B40038
:10004800E52825303A0603192A282B2832283A08A9
:100058000A128A1111230A128A11E528B501013002
:10006800B607FF30360784000A128A11E2220A1204
:100078008A11BA00B100B2013208003A03194528C2
:10008800E5283108003A0319F928643A0319502879
:100098000D3A03195028E528340884008313000812
:1000A800B800840A0008B9000230B1003108B4076A
:1000B800B91F5F28602869280330B1003108B504EA
:1000C800B809B909B80A0319B90ABA01BA0A3A0843
:1000D800B1003107013E84000A128A11E2220A1295
:1000E8008A11B2000A128A11E2220A128A11B30096
:1000F80033083902031D822832083802031885287C
:100108008628872891280130B1003108BA070530C0
:100118003A06031D902891286B28350803390319DE
:10012800962897289D282D300A128A1111230A1221
:100138008A11831203133A08B1003108B700DA288C
:100148000A30A3000030A4003708B1003107013E8F
:1001580084000A128A11E2220A128A11F3000A1292
:100168008A11E2220A128A11F4003908F6003808C6
:10017800F5000A128A115F210A128A117408831283
:100188000313A6007308A5000A128A116B220A122B
:100198008A11831203132308303EB2003208BA00D2
:1001A8003A080A128A1111230A128A11FF3083129F
:1001B8000313B1003108B707370A031DE428E528FF
:1001C800A428013083120313B607FF3036078400D2
:1001D8000A128A11E2220A128A11B1003108BA0001
:1001E8003A08031DF828F92825280800F5004829A9
:1001F800C330831203139F052130F300F30B022948
:10020800831203131F139F131F14831603139F13C3
:100218009F121F125E29C330831203139F052130DA
:10022800F300F30B1529831203131F179F131F14D1
:10023800831603139F139F121F125E29C330831264
:1002480003139F052130F300F30B282983120313AE
:100258001F139F171F14831603139F139F121F1238
:100268005E29C330831203139F052130F300F30B7B
:100278003B29831203131F179F171F148316031399
:100288009F139F121F125E297508F300F40174086A
:10029800003A031950295E297308003A0319FC280B
:1002A800013A03190F29033A03192229013A0319BC
:1002B80035295E29080083120313A101A2017308DE
:1002C8007404031968296929A029A001A00A7729BB
:1002D80001300310F30DF40DFF3E031D6D290130AD
:1002E800F7007708A007F41F7A297B296C290130C9
:1002F8000310A10DA20DFF3E031D7C297408760290
:10030800031D882973087502031C8B298C299329DE
:100318007308F5027408031CF603F6022114013071
:100328000310F40CF30CFF3E031D94290130A002C6
:10033800031D9F29A0297B292208F4002108F30026
:100348000800831203139F18AA29AB29E9291F0C57
:10035800F300730C0F39003A031DB329B429B929E6
:100368001F08C33904389F00E1291F0CF300730CE0
:100378000F39013A031DC129C229C7291F08C339EA
:1003880008389F00E1291F0CF300730C0F39023A5B
:10039800031DCF29D029D5291F08C3390C389F0040
:1003A800E1291F0CF300730C0F39033A031DDD29F3
:1003B800DE29E129C3309F05E1291030F300F30B52
:1003C800E3290000831203139F1408008312031308
:1003D8000C1FEF29F029252A1F0CF000700C0F398B
:1003E800003A031DF829F929FD291E08F0007008B4
:1003F800C7001F0CF000700C0F39013A031D052AC5
:10040800062A0A2A1E08F0007008C6001F0CF00011
:10041800700C0F39023A031D122A132A172A1E08D4
:10042800F0007008C5001F0CF000700C0F39033A7B
:10043800031D1F2A202A242A1E08F0007008C40061
:100448000C1372088A00710E8300FE0E7E0E0900DE
:100458000F308316031788008901831603130614C7
:1004680086140615861583120313850186018701F4
:1004780088018901831603130F128F160F170F14A3
:100488000C17831203130C138B170B1702300A1265
:100498008A11FA200A128A118316031318121815E2
:1004A8008316031787111930831603139900013037
:1004B8009A00831203139817181318168316031338
:1004C80018139816831203138C120C120800831247
:1004D8000313230824040319722A732AA22AA801E1
:1004E800A80A812A01300310A30DA40DFF3E031DA5
:1004F800772A0130A7002708A807A41F842A852A7D
:10050800762A24082602031D8B2A23082502031CA9
:100518008E2A8F2A952A2308A5022408031CA603DD
:10052800A60201300310A40CA30CFF3E031D962A5B
:100538000130A802031DA12AA22A852A2608A400A0
:100548002508A3000800C33083120313BC00CC3075
:10055800BB00BB0BAD2ABC0BAD2A000083120313F2
:100568004708BB00BC013B08A9003C08AA00460894
:10057800BD00BE013D08AB003E08AC004508BF0009
:10058800C0013F08AD004008AE004408C100C201E8
:100598004108AF004208B0000B300A128A111D2032
:1005A8000A128A11C33083120313BC00CC30BB007B
:1005B800BB0BDC2ABC0BDC2A0000080002308A00D6
:1005C8000408840A82070034013400340A340034F1
:1005D80064340034E8340334103427342534643464
:1005E80020342534643420342534643420342534CC
:1005F800643400340A128A112C220A128A110A124F
:100608008A11A5210A128A110A128A11A7220A122E
:100618008A11032B0A128A110C28F3008312031380
:0E0628000C1E172B182B122B730899000800BC
:04400E00D420FF3F7C
:00000001FF
